:020000040000FA
:08000000803102288731F52F41
:100D420031008D018F014030910006309300300058
:100D5200131493147F302F009600FF309700FF305A
:100D62009800FF309900FF309A00FF309B0003305B
:100D72002000910096018C013E00B801B901BA0130
:100D8200BB01BC012000920197018D013E00C3010D
:100D9200C401C501C601C7012000930198018E015B
:100DA2003E00CE01CF01D001D101D2018B012E0034
:100DB20096019701980199019A019B019C019D015D
:100DC2009E018C018D018E018F0190019101920192
:100DD200930194010800F001F101312FF401F501B2
:100DE200003075023C3003197402031CF92EFA2EEE
:100DF200FB2E2D2FF201F301003073020A3003198A
:100E02007202031C052F062F072F202F0530FB002F
:100E12000F30FA00F130890B0C2FFA0B0C2FFB0B61
:100E22000C2F00000130F2070030F33D0030730256
:100E32000A3003197202031C1F2F202F072F0130C3
:100E4200F4070030F53D003075023C30031974029E
:100E5200031C2C2F2D2FFB2E0130F0070030F13D0B
:100E620079087102031D372F78087002031C3A2F8C
:100E72003B2FEF2E080000008631A1268731F601B4
:100E8200F7012000981118119810181016119615D4
:100E9200E02F20008C184E2F4F2F662F6830FC0059
:100EA200E430890B522FFC0B522F003220008C1899
:100EB2005B2F5C2F662F0130F6000030F70098158B
:100EC200181598101814161596110C18692F6A2FF8
:100ED200E02F6830FC00E430890B6D2FFC0B6D2F86
:100EE200003220000C18762F772FE02F0230F60008
:100EF2000030F70098151815981018141615961149
:100F0200E02F0530F8000030F9008631EC268731F9
:100F12000330F6000030F700E02F0F30F800003009
:100F2200F9008631EC268731892FF601F70120007E
:100F32009811181198141810F401F5010030750277
:100F4200033003197402031CA72FA82FA92FDB2F2C
:100F5200F201F301003073020A3003197202031C1A
:100F6200B32FB42FB52FCE2F0530FD000F30FC006C
:100F7200F130890BBA2FFC0BBA2FFD0BBA2F0000F0
:100F82000130F2070030F33D003073020A300319DA
:100F92007202031CCD2FCE2FB52F0130F407003083
:100FA200F53D00307502033003197402031CDA2F79
:100FB200DB2FA92F2000981016119615E02F770825
:100FC200003A0319E52FE02F7608003A03194A2F59
:100FD200013A0319822F033A03198E2F013A03199A
:100FE200962FE02F80310228F001F101F201F30186
:0E0FF200F401F501F601F701200087313C2FD4
:020000040001F9
:0A000E008C3F1D3F9F3FFF3FFF3F67
:00000001FF
